:020000040800F2
:10000000D09F0020ED9D0008CD170008CF170008F5
:10001000E1170008E5170008E917000800000000D4
:10002000000000000000000000000000ED170008C4
:10003000EF17000800000000E3C3000847C60008EF
:10004000079E0008079E0008079E0008079E0008FC
:10005000079E0008079E0008079E0008079E0008EC
:10006000079E0008079E0008079E0008079E0008DC
:10007000079E0008079E0008079E0008079E0008CC
:10008000079E0008B9380008079E0008079E000870
:10009000CF030008079E0008079E000823610008A0
:1000A000079E0008079E0008079E0008079E00089C
:1000B000216A000841180008079E0008079E0008F2
:1000C000079E0008079E0008079E0008079E00087C
:1000D000079E0008079E0008FB1A0008B768000882
:1000E000079E0008079E0008079E0008079E00085C
:1000F000079E0008079E0008079E0008079E00084C
:10010000079E0008079E0008079E0008079E00083B
:10011000079E0008079E0008079E0008079E00082B
:10012000079E0008079E0008079E0008079E00081B
:10013000079E0008079E0008079E0008079E00080B
:1001400081090008A90A0008079E0008079E000808
:10015000079E0008079E0008A9190008079E0008CE
:10016000079E0008079E0008079E0008079E0008DB
:10017000079E0008079E0008079E0008079E0008CB
:10018000079E0008079E0008DFF80CD00CF0CAFCA0
:100190000048004745160008D09F002030BF72B6C7
:1001A000704762B6704780F3088870477CB5044694
:1001B0000D464FF48070009001208DF8040000205F
:1001C0008DF806008DF807008DF805006946104887
:1001D00008F0DAF84FF480710D4808F053F97CBD4F
:1001E00070B50446002510E04FF48071084808F00F
:1001F00047F9642000F070FA4FF48071044808F069
:1002000041F9642000F068FA6D1CA542ECDB70BD7A
:100210000000024000B58BB009220B21F94808F01C
:100220003EF909220C21F74808F039F902208DF82F
:100230001D0000208DF81E0001208DF81F000220F7
:100240008DF81C004FF4C050069006A9ED4808F048
:100250009BF800208DF822000320ADF82000082034
:100260008DF8240003208DF8250000208DF8230050
:100270008DF827008DF828008DF829008DF82A00C8
:100280008DF82B008DF8260008A9DF4807F0CDF87F
:1002900000208DF8120001208DF8130046F2A00016
:1002A000ADF8080046F2C000ADF80A0046F2E000E2
:1002B000ADF80C004FF4C240ADF80E0000208DF8F0
:1002C0001400ADF8100001208DF8150002A807F009
:1002D00036F901208DF812008DF813004FF4C84054
:1002E000ADF808004FF40350ADF80A0042F2E00008
:1002F000ADF80C004FF40450ADF80E0000208DF85E
:100300001400ADF8100001208DF8150002A807F0C8
:1003100016F914208DF8040002208DF80500002045
:100320008DF8060001208DF8070001A806F0F9FFFE
:1003300001220221B44807F001FC0BB000BD10B54A
:100340000446B24805F0B5FF18B10120B049C870A5
:1003500010BD20688038AD494A88091D01EB0211A3
:100360000860A17AA9484288001D00EB02100171C3
:10037000A27AA6494B88091D01EB0311481D04F11F
:100380000B010CF0A9F90121A0484288001D00EBE7
:10039000021041739D484088401C1E2190FBF1F2E1
:1003A00001FB12009949488000BFD1E74168491C10
:1003B0004160002101730169491E0161818A491C64
:1003C0001E2291FBF2F302FB13118182704770B57C
:1003D00088B002218C4807F019FC00287DD003AAC0
:1003E0000021894807F08FFA0221874807F0A9FC0D
:1003F0000398B0F5417F71D90398B0F5427F6DD86D
:100400009DF81500002869D10398A0F205349DF8E5
:100410001700432816D19DF81800572812D19DF8CF
:10042000170048280ED19DF8180055280AD1C4EBB2
:100430008411784A02EBC100FFF7B8FF03A8FFF769
:100440007EFFDEE09DF817004D2848D19DF818008A
:100450004F2844D19DF81900C8B9002004EB0411BD
:1004600001EB41016C4A02EB8101487004EB04117D
:1004700001EB410102F82100C4EB8411654A02EB53
:10048000C100FFF793FF03A8FFF759FFB9E09DF8FC
:1004900019000128D5D1052004EB041101EB41011D
:1004A0005D4A02EB81018870012004EB041101EB2D
:1004B000410102F8210004EB041101EB410102EBC0
:1004C00081014870C4EB8411524A02EBC100FFF76E
:1004D0006DFF03A8FFF733FF93E0F2E09EE09DF885
:1004E0001700422817D19DF81800472813D1012082
:1004F00004EB041101EB4101474A02EB8101487012
:10050000C4EB8411434A02EBC100FFF74FFF03A87D
:10051000FFF715FF75E09DF81700532817D19DF8D8
:100520001800542813D1002004EB041101EB410101
:10053000394A02EB81014870C4EB8411354A02EB61
:10054000C100FFF733FF03A8FFF7F9FE59E09DF85C
:10055000170053281AD19DF81800502816D1BDF85D
:10056000190086B231B204EB041000EB40002A4AB5
:1005700002EB8000C181C4EB8411264A02EBC1006A
:10058000FFF714FF03A8FFF7DAFE3AE09DF8170023
:10059000432836D19DF81800482832D1BDF91950AA
:1005A00004EB041000EB40001B4901EB8000D0ED90
:1005B000080A00EE105AB8EEC00A20EE800AF3EEE8
:1005C0000E0A80EE201ABDEEC10A10EE100A04EBEE
:1005D000041101EB4101104A02EB81014862012044
:1005E00004EB041101EB410102EB81014870C4EB03
:1005F0008411084A02EBC100FFF7D8FE03A8FFF7F9
:100600009EFE5DE00000024000640040203B0020B0
:10061000D82E0020E83E0020B03000200398B0F52E
:10062000487F4DD19DF81500F0BB0020BDF8171094
:10063000ADF80410BDF81910ADF80610BDF81B1088
:10064000ADF80810BDF81D10ADF80A1000BF34E079
:1006500001A931F9101000EE101AB8EEC00A00EB33
:10066000001101EB41011A4A02EB8101D1ED080AA8
:1006700020EE200AF3EE0E0A80EE201ABDEEC10A2B
:1006800010EE101A00EB001202EB4202104B03EBCB
:1006900082025162052100EB001202EB420203EBE1
:1006A00082029170012100E00AE000EB001202EBEF
:1006B000420203EB82025170401C0428C8D300BFE1
:1006C00000BF0221034807F07EFA08B070BD0000A9
:1006D000B03000200064004010B5002107E04AF26D
:1006E000104200BF1300A2F10102FBD1491C81425C
:1006F000F5D310BD10B5002106E0282200BF13007D
:10070000A2F10102FBD1491C8142F6D310BD00BF0A
:100710000100A0F1010290B2FAD1704700B58BB090
:100720000121880608F0A9F80121022008F072F8DA
:1007300009220521FD4807F0B2FE09220621FB48E7
:1007400007F0ADFE02208DF81C006020069002200C
:100750008DF81D0000208DF81E0001208DF81F006F
:1007600006A9F24807F010FE00208DF822000320B1
:10077000ADF8200008208DF8240003208DF8250016
:1007800000208DF823008DF827008DF828008DF8C3
:1007900029008DF82A008DF82B008DF8260008A975
:1007A000E34806F042FE0E208DF8120001208DF87D
:1007B000130044F22000ADF8080044F24000ADF808
:1007C0000A0044F26000ADF80C004FF48140ADF82F
:1007D0000E0000208DF81400ADF8100001208DF8F7
:1007E000150002A806F0ABFE0F208DF812000120C4
:1007F0008DF8130044F2A000ADF8080044F2C000E8
:10080000ADF80A0044F2E000ADF80C004FF482406D
:10081000ADF80E0000208DF81400ADF81000012096
:100820008DF8150002A806F08AFE10208DF812003F
:1008300001208DF8130045F22000ADF8080045F2C4
:100840004000ADF80A0045F26000ADF80C004FF42E
:10085000A140ADF80E0000208DF814000120ADF885
:1008600010008DF8150002A806F069FE11208DF821
:10087000120001208DF8130045F2A000ADF8080029
:1008800045F2C000ADF80A0045F2E000ADF80C00FA
:100890004FF4A240ADF80E0000208DF814000120A6
:1008A000ADF810008DF8150002A806F048FE1220E1
:1008B0008DF8120001208DF813004FF48150ADF82F
:1008C00008004FF48250ADF80A004FF48350ADF8A1
:1008D0000C004FF48450ADF80E0000208DF8140089
:1008E0000120ADF810008DF8150002A806F027FED3
:1008F00013208DF8120001208DF813004FF485505D
:10090000ADF808004FF48650ADF80A004FF4875058
:10091000ADF80C004FF48850ADF80E0000208DF8B3
:1009200014000120ADF810008DF8150002A806F0A3
:1009300006FE40208DF8040002208DF805000020FE
:100940008DF8060001208DF8070001A806F0E9FCEB
:1009500041208DF8040002208DF8050001208DF85B
:10096000060001A806F0DDFC01220221704807F014
:10097000E5F8012210216E4807F0E0F80BB000BD49
:1009800010B586B002216A4807F040F9002874D0FB
:1009900001AA0021664806F0B6FF0221644807F06C
:1009A000D0F90198B0F5007F66D90198B0F5027FC3
:1009B00062D89DF80D0000285ED10198A0F20124B4
:1009C00004A9481E00F0BEFE0DF11201481E00F001
:1009D000B9FE05A9481E00F0B5FEBDF80F1004EBE6
:1009E000041000EB4000534A02EB8000A0F84010D6
:1009F000BDF8111004EB041000EB400002EB800086
:100A00000187BDF8131004EB041000EB400002EB6B
:100A10008000418704EB041000EB4000114601EB1D
:100A20008000408B04EB041101EB410102EB8101DA
:100A3000098B484300EE100AF8EEC00A04EB0410DC
:100A400000EB4000114601EB8000C06B00EE100A85
:100A5000B8EEC00A9FED381A20EE010A80EE201A87
:100A6000BDEEC10A10EE100A04EB041101EB4101C6
:100A700002EB8101486300BF00BF02212C4807F050
:100A8000A2F806B010BD4168491C41600021017305
:100A90000169491E0161818A491C1E2291FBF2F302
:100AA00002FB13118182704710B586B010212048D7
:100AB00007F0ACF8002877D001AA01211C4806F005
:100AC00022FF10211A4807F03CF90198B0F5207F69
:100AD0006BD99DF80D00002867D19DF80C00002807
:100AE000FAD10198A0F28120C4B29DF80F004128EC
:100AF0000BD19DF81000432807D19DF8120000F09B
:100B00004000012801D0012000E000209DF80F10D6
:100B1000422913D19DF8101047290FD19DF81210CA
:100B200001F04001012909D0012108E00004024040
:100B300000680040B03000200000B44300210843AA
:100B40009DF80F104A290BD19DF81010562907D196
:100B50009DF8121001F04001012901D0012100E0AF
:100B6000002108439DF80F104D290BD19DF810105E
:100B70004F2907D19DF8121001F04001012901D041
:100B8000012100E0002108439DF80F1050290DD1EC
:100B90009DF81010522909D19DF8121001F0400162
:100BA000012903D0012102E0AAE108E10021084364
:100BB0009DF80F1053290BD19DF81010442907D12F
:100BC0009DF8121001F04001012901D0012100E03F
:100BD000002108439DF80F1053290BD19DF81010E8
:100BE000542907D19DF8121001F04001012901D0CC
:100BF000012100E0002108439DF80F1054290BD17A
:100C00009DF81010432907D19DF8121001F0400102
:100C1000012901D0012100E0002108439DF80F10B7
:100C200055290BD19DF810104D2907D19DF81210B0
:100C300001F04001012901D0012100E00021084319
:100C400030B1C4EB8411FC4A02EBC100FFF71BFF7B
:100C50009DF80F004D2810D19DF810004F280CD1A1
:100C60009DF8130008B1012000E00020C4EBC4018E
:100C700001EB0411F14A02F821009DF80F005528FC
:100C80000DD19DF810004D2809D19DF81300C4EB3B
:100C9000C40101EB0411E94A02EB810188709DF85F
:100CA0000F00562828D19DF81000582824D1DDF8CF
:100CB0001310C4EBC40000EB0410E04A02EB800008
:100CC000C163C4EBC40000EB0410114601EB8000CB
:100CD000008C3C2190FBF1F1C4EBC40000EB04104C
:100CE00002EB8000C06B90FBF1F1C4EBC40000EBA1
:100CF000041002EB8000C1639DF80F00502840D122
:100D00009DF8100058283CD1DDF81310C4EBC40046
:100D100000EB0410C94A02EB80000164C4EBC4007C
:100D200000EB0410114601EB800090ED090A1FED65
:100D30007E1AC1EE000AC4EBC40000EB041001EB04
:100D40008000006C00EE100AB8EEC00A60EE800A67
:100D5000C4EBC40000EB041001EB8000008C00EE3B
:100D6000100AB8EE400A80EE801ABDEEC10A10EEFD
:100D7000100A00B2C4EBC40101EB041102EB8101C3
:100D800008879DF80F0049280ED19DF810005128C2
:100D90000AD1BDF8130001B2C4EBC40000EB04108B
:100DA000A64A02EB800041870BF0D4FAC4EBC401E1
:100DB00001EB0411A14A02EB8101486500BF0198D3
:100DC00080287DD9019889287AD29DF80D000028C5
:100DD00076D101988138C4B29DF80F0011280DD149
:100DE0009DF81000832809D144F49952944803C80F
:100DF00000F0BBFC0320FFF7F3F975E09DF80F004E
:100E000080280FD19DF8100084280BD142F22030A9
:100E100044EA00028A4803C800F0A7FC0320FFF759
:100E2000DFF961E09DF80F0081280FD19DF81000D7
:100E300084280BD143F2203044EA0002804803C8E2
:100E400000F093FC0320FFF7CBF94DE09DF80F0075
:100E500021280DD19DF81000712809D144F4487261
:100E6000774803C800F081FC0320FFF7B9F93BE0A5
:100E70009DF80F0080280FD19DF8100086280BD117
:100E800044F2203044EA00026D4803C800F06DFCD3
:100E90000320FFF7A5F927E09DF80F00102810D1D7
:100EA0009DF81000FF280CD145F2203044EA0002E2
:100EB000634803C800F059FC0320FFF791F913E0E1
:100EC0001DE09DF80F0010280ED19DF8100043285A
:100ED0000AD146F2203044EA0002594803C800F023
:100EE00044FC0320FFF77CF90BF034FAC4EBC40197
:100EF00001EB0411514A02EB8101486500BF00BFBC
:100F00001021504806F05FFE06B010BD70B50446D3
:100F100004EB041000EB40004B4901EB8000B0F9FA
:100F20002A00002808DD04EB041000EB400001EB70
:100F30008000B0F92A0009E004EB041000EB400047
:100F4000414901EB8000B0F92A00404204EB041152
:100F500001EB41013C4A02EB8101898B88421FDD94
:100F600004EB041000EB4000114601EB8000B0F9E7
:100F70002A00002801DB012001E04FF0FF3004EBE4
:100F8000041101EB4101304A02EB8101898B484396
:100F900001B204EB041000EB400002EB800041853D
:100FA00004EB041000EB4000274901EB800040787F
:100FB00030B104EB041000EB400011F8200040B900
:100FC000002104EB041000EB40001F4A02EB8000FC
:100FD0004185042C04DA4FF400701C49086003E0DA
:100FE00040F2FF1019490860002018494872087241
:100FF00008208872E11704EB91718910A4EB81013C
:1010000049060D0E04EB041000EB40000E4901EB05
:101010008000418D0D480B30415302466B1CD118A6
:10102000501900F08FFB032C01D0072C03D1074986
:10103000044806F073FB70BDB84A002060370020FA
:101040001C00002000680040B0300020C4000020D8
:1010500030B585B004460D460D48019000208DF84E
:10106000090004208DF808008DF80A0056208DF83C
:101070000B004C218DF80C108DF80D508DF80E40A2
:101080006946044806F04AFB0348055505B030BDE3
:101090000101030000680040F02E00201CB54FF451
:1010A0004070009001208DF8040000208DF80600AB
:1010B00002208DF8050069461A4807F065F94FF4DB
:1010C0008071184807F0DCF94FF40071154807F0FB
:1010D000D9F91CBD70B50446112C00DD112412484D
:1010E000055D00261AE04FF480710E4807F0CAF93A
:1010F00005F0010028B14FF400710A4807F0C0F96B
:1011000004E04FF40071074807F0BCF94FF4807118
:10111000044807F0B5F96D10701CC6B2082EE2DB6A
:1011200070BD000000040240F8D200081CB5002089
:10113000009003460122F0210190274805F086FF28
:10114000F021254807F09CF91CBD10B5102122485C
:1011500007F098F94FF4FA600BF04CF820211E4884
:1011600007F090F94FF4FA600BF044F840211A4868
:1011700007F088F94FF4FA600BF03CF8102116489C
:1011800007F07EF94FF4FA600BF034F82021124892
:1011900007F076F94FF4FA600BF02CF840210E4876
:1011A00007F06EF94FF4FA600BF024F810BD70B53B
:1011B00004460D4600260CE0074844834FF4FA60CD
:1011C0000BF018F8044804834FF4FA600BF012F89F
:1011D000761CAE42F0DB70BD0000024060E00020F3
:1011E00004F0C1FFFC48007810B9FFF7AEFF53E0F0
:1011F0001021FA4807F046F9F7484068446800258E
:1012000046E02078C0F3031068B98021F34807F066
:1012100037F92178C1F30310FFF75CFF2021EF4875
:1012200007F030F91EE04021EC4807F02BF980214F
:10123000EA4807F027F92021E84807F023F9217848
:1012400001F00F00FFF746FF2178C1F30310FFF70D
:1012500041FF2188C1F30320FFF73CFF2188080BE1
:10126000FFF738FF64684FF47A700AF0C3FF40213B
:10127000DA4807F005F98021D84807F001F9202164
:10128000D64807F0FDF84FF47A700AF0B3FF6D1CF2
:10129000D1480078A842B4DC4FF47A700AF0AAFF73
:1012A0009DE705E000F088FC4FF4FA700AF0A2FF19
:1012B000F8E705E001F078FA40F6B8300AF09AFF56
:1012C000F8E74EE0C6480078E8B1C6480168006813
:1012D000401CC44A106051B90123C348026802216E
:1012E000184604F024FA00210846FFF7B1FEBD4875
:1012F0000068022807D1012003F031FF0020B8491F
:101300000870B8490860B9480078012807D1012160
:101310000020FFF79DFE0020B44908701EE0B3488E
:10132000007802281AD1AF4801680068401CAD4A15
:10133000106039B90123AE480068424202211846C4
:1013400004F0F5F9A7480068022807D1012003F04E
:1013500006FF0020A5490870A24908600A200AF08B
:1013600049FFAFE7CCE0A34801680068401CA14AF0
:101370001060C9B9012300220221184603F065FE5E
:10138000012300220221184604F04AFA9A48026B0F
:1013900001230221184604F032F89748026B01231A
:1013A0000221184604F02EFB012004F00DFD00235D
:1013B0001A460121084604F033FA012004F0B3F87C
:1013C00000231A460121084603F03FFE00231A4677
:1013D0000121084604F07FFC8748008C00EE100ACB
:1013E000F8EE400A9FED851A80EE810A8248D0ED22
:1013F000090A60EE200AB0F92C0000EE100AB8EEDF
:10140000C00A20EE800ABDEEC00A10EE100A7A492A
:10141000486300246FE0C4EBC40000EB041076497D
:1014200011F8200040B30AF095FFC4EBC40101EBB2
:101430000411714A02EB8101496D411AC4EBC400E9
:1014400000EB041002EB8000B0F85800814213D981
:10145000C4EBC40000EB0410114601EB800090F8CF
:101460005000401CC1B2C4EBC40000EB041002EBFE
:10147000800080F8501009E00021C4EBC40000EBAC
:1014800004105D4A02EB800080F85010C4EBC400E9
:1014900000EB0410584901EB800090F850000A2836
:1014A00011DDA0B240F490724B4803C800F05DF922
:1014B0000121C4EBC40000EB04104F4A02EB800092
:1014C00080F8471016E00021C4EBC40000EB0410C4
:1014D000494A02EB800080F84710A0B240F49072B5
:1014E0003D4803C800F05BF905462A463A4803C860
:1014F00000F02EF9641C082C8DDB32200AF07AFEF5
:1015000031E70EE03E493F4804F08FFF3E488078C7
:1015100020B102223A493D4805F05DF803200AF067
:1015200069FEEFE770B50446002500BF0BF0A1F897
:101530000AF036FF054600200AF0CBF8344908606F
:101540000F23344A002134480AF00EFB3223334A79
:10155000002133480AF008FB3723324A0021324881
:101560000AF002FB1923314A002131480AF0FCFA43
:101570001E23304A002130480AF0F6FA23232F4A6E
:1015800000212F480AF0F0FA1E4803F07DFC0520E8
:101590000AF030FE1B4803F077FC05200AF02AFE13
:1015A000184803F071FC05200AF024FE154803F0EA
:1015B0006BFC05200AF01EFE03F08BFC0220FEF7F8
:1015C0000FFE4FF47A700AF015FE05200AF04AFD6E
:1015D00028460AF0E9FE70BD1C0000200000024011
:1015E000040000200C000020140000200500002052
:1015F0001800002008000020603700200000B443DD
:10160000043D002000680040D82E0020B84A002089
:1016100000000020D406002003150008D42C002070
:1016200065130008D42E0020C3120008D40E002039
:10163000B3120008D4160020A3120008D41800200A
:10164000DD11000810B508F037FB4FF4806101F0A0
:101650000702244B18684FF6FF031840224B034340
:1016600043EA02201F4B186000BF01211F4807F00A
:10167000D1F801211E4807F000F9012144F21000C1
:1016800007F00CF9FFF752FDFFF708FDD22140F2F9
:101690000B20FEF78BFD04F0DFFBFEF7BBFDFFF731
:1016A0003DF800F043F804F0F3FD0221114804F086
:1016B00073FF00F0D1F800F097F905F087F900F01A
:1016C00097F801210C4807F019FB08F0D9FC052315
:1016D0000A4A00210A480AF047FA08F0F8FD0020FB
:1016E00010BD00000CED00E00000FA0507006000EE
:1016F00003000202B84A002000040040D404002085
:101700002515000810B504200BF0C0FD0446042088
:101710000BF0BCFD6060002061684860204610BD91
:1017200000202849087001208870704710B502F029
:10173000E3F805F07FF9FFF7F3FFFFF7E3FF224936
:10174000486010BD00220A7803780B700270704761
:1017500070B5144604B970BD656868686060284655
:101760000BF06CFD00BF00BFF5E737B51546019CD7
:10177000002001E06468401C9DF800108142F9DA05
:10178000258004200BF082FD6060002061684860C5
:101790009DF80000401CC0B28DF800003EBD07B5AA
:1017A0000199002307E048680088904201D108466B
:1017B0000EBD49685B1C9DF800009842F3DC0020D8
:1017C000F6E70000D82E00201C000020704706E03D
:1017D0004FF4FA70FEF780FF0920FFF77BFCF7E774
:1017E00000BFFEE700BFFEE700BFFEE7704770479F
:1017F0001FB50020ADF80C00ADF8060009200290DE
:1018000042F2CF00ADF8040001A9124807F0EDF94B
:101810001D208DF8000000208DF8010001208DF8BA
:1018200002008DF80300684605F07BFD01210948A0
:1018300007F090FE01221146064807F077FE1FBD13
:1018400010B50121034807F07CFE0121014807F093
:1018500081FE10BD0004004000B597B007220921A9
:101860005B4806F01CFE07220A21594806F017FEC5
:1018700002208DF858004FF4C060159003208DF8B9
:10188000590000208DF85A008DF85B0015A95048CA
:1018900006F07AFD0C20ADF84E000020ADF84800AF
:1018A0004FF4E13011900020ADF85000ADF84C003D
:1018B000ADF84A0011A9474807F08AFF012240F21B
:1018C0002551444808F0C2F825208DF84000032037
:1018D0008DF8410001208DF842008DF8430010A8DA
:1018E00005F01FFD3C4806F07FFA4FF000600190C4
:1018F0003848001D02903948039000200A9040208B
:1019000004900020059006904FF48060079000201E
:10191000099008904FF440300B9001200D9000206A
:101920000C900E900F9001A92B4806F0FFFA2C495D
:10193000294806F0AEFB2A49274806F005FC01229B
:101940001021254806F0B9FB01228021214808F02A
:1019500074F846208DF8400002208DF841008DF883
:10196000420001208DF8430010A805F0DAFC0121A7
:10197000184807F0B5FF17B000BD70B504460D4616
:101980001848807D78B90120164988752A46214675
:1019900012480AF0A1FE29460F4806F022FB012159
:1019A0000D4806F0FDFA70BD10B50D490A4806F065
:1019B000A1FB58B10A49084806F0C6FB4FF0205178
:1019C000054806F066FB00200649887510BD00003A
:1019D0000000024000100140B8640240F72E0020D1
:1019E00000800028D82E002000B597B007220221E1
:1019F000F94806F054FD07220321F74806F04FFD91
:101A000002208DF858000C20159002208DF8590006
:101A100000208DF85A008DF85B0015A9EE4806F0FD
:101A2000B3FC0C20ADF84A000020ADF844004FF4A0
:101A3000E13010900020ADF84C00ADF84800ADF852
:101A4000460010A9E54807F0C3FE012240F22551E7
:101A5000E24807F0FBFF26208DF8500001208DF8AA
:101A600051008DF852008DF8530014A805F059FC70
:101A7000DB4806F0B9F94FF000600190D748001D2F
:101A80000290D848039000200A90402004908000E3
:101A90000590002006904FF4806007900020099088
:101AA00008904FF480300B9003200D9000200C9094
:101AB0000E900F9001A9CA4806F038FA01221021B1
:101AC000C74806F0FAFA11208DF8500002208DF870
:101AD000510003208DF8520001208DF8530014A806
:101AE00005F01FFC01228021BC4807F0A6FF012160
:101AF000BA4807F0F5FE17B000BD10B5002440F25B
:101B00002531B64807F0DDFF50B1B44807F017FFA4
:101B10000020B54908702821B4480AF0F6FD4AE0D3
:101B200040F22551AD4807F0CCFF002843D0AB4828
:101B300007F005FFC4B22021A84807F0B9FF40F222
:101B40002551A64807F0F4FFEE2C06D1A6480078F0
:101B500040F04000A449087025E0A348007800F058
:101B6000400000B3A048007800F08000D8B9FF2CF6
:101B700006D19D48007840F080009B49087012E033
:101B80009948007800F03F0098490C549648007836
:101B9000401C954908700846007800F03F0028284E
:101BA00001DD002008709048007800F0800010B13E
:101BB00001208F49087010BD10B52DED0C8B8C489D
:101BC000007800286FD089484078012803D18748E1
:101BD000C078884908708548C078052804D2DFE8B5
:101BE00000F0030463EFEE0060E2804840790E28C5
:101BF00057D2DFE800F0560712161A1E565656291D
:101C0000563856477C4803F03FF903F062F900204C
:101C10007A4908707A49087043E0012077490870D2
:101C20003FE00120764908703BE0022073490870CC
:101C300037E0012300220221184603F006FA0021B2
:101C40000846FFF705FA2CE06848C01D0BF0D4F9F0
:101C5000B0EE408AF0EE608A51EC180B0AF05EFE9E
:101C6000684908601DE06148C01D0BF0C5F9B0EE81
:101C7000408AF0EE608A51EC180B0AF04FFE624980
:101C800008600EE05948C01D0BF0B6F9B0EE408A6E
:101C9000F0EE608A51EC180B0AF040FE5B490860D8
:101CA00000BF00BFA0E7FDE3504840791A281BD2CF
:101CB000DFE800F01A0D1B314A637C87B0BAC4CD4F
:101CC000D7E1F7F0EFEEEDECEBEAE9E8E7E600202C
:101CD00008E0002100EB001202EB42024C4B03F83B
:101CE0002210401C0828F4DBDFE14048C07920B115
:101CF000012806D002280CD107E002204449887050
:101D000007E004204249887003E0052040498870BC
:101D100000BF00BFC9E13548C07920B1012807D014
:101D200002280FD109E00221394880F8CE1009E0DD
:101D30000421374880F8CE1004E00521344880F8AB
:101D4000CE1000BF00BFB0E12848C07920B1012803
:101D500007D002280FD109E002212D4880F89A11FE
:101D600009E004212A4880F89A1104E00521284856
:101D700080F89A1100BF00BF97E11C48C07920B1DC
:101D8000012807D002280FD109E00221204880F85D
:101D9000661209E004211E4880F8661204E005215D
:101DA0001B4880F8661200BF00BF7EE10F48007A32
:101DB00008B1012000E000201549087075E1FDE33D
:101DC00075E10A48007A08B1012000E000201049BE
:101DD00081F8CC0069E100000000024000440040AE
:101DE000A06002403F2F002025000020172F002078
:101DF000260000202400002000680040050000208C
:101E00000400002010000020140000201800002012
:101E1000B0300020F748007A08B1012000E000202F
:101E2000F54981F8980140E1F248007A08B10120B3
:101E300000E00020F04981F8640236E1ED48007AC4
:101E400008B1012000E00020EB4948702DE1E9488D
:101E5000007A08B1012100E00021E74880F8CD10A8
:101E600023E1E448007A08B1012100E00021E248C2
:101E700080F8991119E1DF48007A68B101210CE07E
:101E8000F2E0D0E0AEE08EE07DE06CE05BE04BE0C5
:101E900039E027E015E004E00021D74880F865121A
:101EA00003E1D448C01D0BF0A7F8B0EE408AF0EE75
:101EB000608A51EC180B0AF031FD01B2CE48018561
:101EC000F3E0CC48C01D0BF097F8B0EE408AF0EE7E
:101ED000608A51EC180B0AF021FD01B2C648A0F847
:101EE000F410E2E0C348C01D0BF086F8B0EE408A63
:101EF000F0EE608A51EC180B0AF010FD01B2BE48FA
:101F0000A0F8C011D1E0BB48C01D0BF075F8B0EED1
:101F1000408AF0EE608A51EC180B0AF0FFFC01B227
:101F2000B548A0F88C12C0E0B248C01D0BF064F8B0
:101F3000B0EE408AF0EE608A51EC180B0AF0EEFC2D
:101F4000AD494862B1E0AB48C01D0BF055F8B0EEAA
:101F5000408AF0EE608A51EC180B0AF0DFFCA649CB
:101F6000C1F8F000A1E0A348C01D0BF045F8B0EEA9
:101F7000408AF0EE608A51EC180B0AF0CFFC9E49C3
:101F8000C1F8BC0191E09B48C01D0BF035F8B0EEE4
:101F9000408AF0EE608A51EC180B0AF0BFFC9649BB
:101FA000C1F8880281E09348C01D0BF025F8B0EE1F
:101FB000408AF0EE608A51EC180B0AF0AFFC01B2D7
:101FC0008D48C1818B48C01D0BF016F8B0EE408AD9
:101FD000F0EE608A51EC180B0AF0A0FC01B28648C2
:101FE000418262E08348C01D0BF006F8B0EE408AE3
:101FF000F0EE608A51EC180B0AF090FC01B27E48BA
:10200000A0F8DA107B48C01D0AF0F6FFB0EE408A57
:10201000F0EE608A51EC180B0AF080FC01B27648B1
:10202000A0F8DE1041E07348C01D0AF0E5FFB0EEF5
:10203000408AF0EE608A51EC180B0AF06FFC01B296
:102040006D48A0F8A6116B48C01D0AF0D5FFB0EE90
:10205000408AF0EE608A51EC180B0AF05FFC01B286
:102060006548A0F8AA1120E06248C01D0AF0C4FF2C
:10207000B0EE408AF0EE608A51EC180B0AF04EFC8C
:1020800001B25D48A0F872125A48C01D0AF0B4FFB0
:10209000B0EE408AF0EE608A51EC180B0AF03EFC7C
:1020A00001B25548A0F8761200BF00BF59E351486D
:1020B00040791A2819D2DFE800F0180D1938577640
:1020C00095A1A9B1B9C4CFDAF1EFEEEDECEBEAE9F5
:1020D000E8E7E6E5002406E001230022022120468D
:1020E00002F0B3FF641C082CF6DBD7E24148C0794C
:1020F00020B1012809D0022815D10DE001230222C8
:102100001146002003F0E7FD00BF01230422022155
:10211000002003F0E0FD00BF012305220221002082
:1021200003F0D9FD00BF00BFB8E23248C07920B14A
:10213000012809D0022815D10DE001230222114601
:10214000184603F0C8FD00BF0123042202211846EF
:1021500003F0C1FD00BF012305220221184603F050
:10216000BAFD00BF00BF99E22248C07920B1012822
:1021700009D0022815D10DE0012302221146104694
:1021800003F0A9FD00BF012304220221084603F049
:10219000A2FD00BF012305220221084603F09BFD9A
:1021A00000BF00BF7AE21348C07920B1012809D0EE
:1021B000022815D10DE0012302221146032003F06D
:1021C0008AFD00BF012304220221032003F083FDC6
:1021D00000BF012305220221032003F07CFD00BF84
:1021E00000BF5BE20348027A01230221002002F0D3
:1021F0002CFF53E2172F0020B0300020F948027A5C
:1022000001230221184602F020FF47E2F548027A36
:1022100001230221084602F018FF3FE2F148027A4A
:1022200001230221032002F010FF37E2ED48007A7B
:1022300018B1002002F093FF02E0002003F07DFCC3
:102240002CE2E848007A18B1012002F088FF02E091
:10225000012003F072FC21E2E248007A18B102206A
:1022600002F07DFF02E0022003F067FC16E2DD4889
:10227000007A18B1032002F072FF02E0032003F09D
:102280005CFC0BE2F5E1DFE1C9E1B3E161E11AE1F8
:10229000D1E08BE068E045E022E0FFE7D148C01DD7
:1022A0000AF0AAFEB0EE408AF0EE608A51EC180BFC
:1022B0000AF034FBCC490863CA48C01D0AF09CFEF2
:1022C000B0EE408AF0EE608A51EC180B0AF026FB63
:1022D0000446012322460221002003F090F8DDE1AC
:1022E000C048C01D0AF088FEB0EE408AF0EE608A59
:1022F00051EC180B0AF012FBBB490863B948C01D2A
:102300000AF07AFEB0EE408AF0EE608A51EC180BCB
:102310000AF004FB0446012322460221184603F07A
:102320006EF8BBE1AF48C01D0AF066FEB0EE408A11
:10233000F0EE608A51EC180B0AF0F0FAAA49086333
:10234000A848C01D0AF058FEB0EE408AF0EE608A40
:1023500051EC180B0AF0E2FA04460123224602214E
:10236000084603F04CF899E19E48C01D0AF044FE6F
:10237000B0EE408AF0EE608A51EC180B0AF0CEFA0B
:10238000994908639748C01D0AF036FEB0EE408AAE
:10239000F0EE608A51EC180B0AF0C0FA04460123F3
:1023A00022460221032003F02AF877E18D48C01D60
:1023B0000AF022FEB0EE408AF0EE608A51EC180B73
:1023C0000AF0ACFA88494863088C0AF09AFA41ECA2
:1023D000190B854890ED090A10EE101A08460AF00C
:1023E000BCFA41EC1C0B7F48C01D0AF005FEB0EEA4
:1023F00040DAF0EE60DA53EC1C2B51EC1D0B0AF0C6
:102400009FF941EC1B0B9FED790B53EC102B0AF05D
:1024100009FA41EC1A0B53EC192B0AF091F941EC33
:10242000180B0AF07BFA0446012322460221002001
:1024300003F0BAF832E16B48C01D0AF0DDFDB0EEE2
:10244000408AF0EE608A51EC180B0AF067FA664990
:102450004863B1F87C000AF054FA41EC190B624869
:1024600090ED200A10EE101A08460AF076FA41ECB8
:102470001C0B5C48C01D0AF0BFFDB0EE40DAF0EE68
:1024800060DA53EC1C2B51EC1D0B0AF059F941ECAE
:102490001B0B9FED560B53EC102B0AF0C3F941ECCC
:1024A0001A0B00E06CE153EC192B0AF049F941ECEE
:1024B000180B0AF033FA044601232246022118467B
:1024C00003F072F8EAE04748C01D0AF095FDB0EE4F
:1024D000408AF0EE608A51EC180B0AF01FFA42496C
:1024E0004863B1F8D8000AF00CFA41EC190B3E48E9
:1024F00090ED370A10EE101A08460AF02EFA41EC59
:102500001C0B3848C01D0AF077FDB0EE40DAF0EE43
:1025100060DA53EC1C2B51EC1D0B0AF011F941EC65
:102520001B0B9FED320B53EC102B0AF07BF941ECA7
:102530001A0B53EC192B0AF003F941EC180B0AF0B3
:10254000EDF90446012322460221084603F02CF847
:10255000A4E02448C01D0AF04FFDB0EE408AF0EE22
:10256000608A51EC180B0AF0D9F91F494863B1F899
:1025700034010AF0C6F941EC190B1B4890ED4E0AE4
:1025800010EE101A08460AF0E8F941EC1C0B154849
:10259000C01D0AF031FDB0EE40DAF0EE60DA53EC27
:1025A0001C2B51EC1D0B0AF0CBF841EC1B0B9FEDE3
:1025B0000F0B53EC102B0AF035F900E070E041EC02
:1025C0001A0B53EC192B0AF0BBF841EC180B0AF06C
:1025D000A5F90446012322460221032002F0E4FF6C
:1025E0005CE00000172F0020603700200000000092
:1025F00000807640FE480AF0FFFCB0EE408AF0EE24
:10260000608A51EC180B0AF089F9FA49086108460A
:10261000026901230221002003F0F4F93EE0F448AE
:102620000AF0EAFCB0EE408AF0EE608A51EC180B3A
:102630000AF074F9EF490861084602690123022192
:10264000184603F0DFF929E0E9480AF0D5FCB0EEBE
:10265000408AF0EE608A51EC180B0AF05FF9E54908
:1026600008610846026901230221084603F0CAF9FD
:1026700014E0DF480AF0C0FCB0EE408AF0EE608A59
:1026800051EC180B0AF04AF9DA4908610846026968
:1026900001230221032003F0B5F900BF00BF60E071
:1026A000D348C01F4079082859D2DFE800F0580409
:1026B000101C2834404CCE48C01F007A08B10120BD
:1026C00000E0002001460020FEF7C2FC47E0C848B9
:1026D000C01F007A08B1012000E00020014601205F
:1026E000FEF7B6FC3BE0C248C01F007A08B10120EB
:1026F00000E0002001460220FEF7AAFC2FE0BC48C3
:10270000C01F007A08B1012000E00020014603202C
:10271000FEF79EFC23E0B648C01F007A08B10120F6
:1027200000E0002001460420FEF792FC17E0B048CC
:10273000C01F007A08B1012000E0002001460520FA
:10274000FEF786FC0BE0AA48C01F007A08B1012002
:1027500000E0002001460620FEF77AFC00BF00BF23
:1027600000BF00BF0020A44908702821A048C01F56
:1027700009F0CBFF0020A14908700120FDF730FDD2
:10278000BDEC0C8B10BD10B504469D48C07D50B902
:1027900001209B49C87521469A4805F022FC012179
:1027A000984805F0FDFB10BD10B500249648007850
:1027B000052881F07C80DFE810F005003D00620014
:1027C0000C04BC07EE222046641C90490A54B12236
:1027D0002046641C0A5410222046641C0A5400221D
:1027E0002046641C0A542046641C0A542046641C7B
:1027F0000A5405222046641C0A5410222046641CF8
:102800000A5401222046641C0A5400222046641CFB
:102810000A54FF222046641C0A54FC222046641CF1
:102820000A54FF222046641C0A542046641C0A54A1
:1028300001F03DB8EE222046641C74490A54B122CE
:102840002046641C0A5412222046641C0A540022AA
:102850002046641C0A5401222046641C0A54FF22AC
:102860002046641C0A54FC222046641C0A54FF22A1
:102870002046641C0A542046641C0A54D8E7EE2201
:102880002046641C61490A54B1222046641C0A5443
:1028900012222046641C0A5400222046641C0A545A
:1028A00002222046641C0A5400222046641C0A545A
:1028B00006222046641C0A5400222046641C0A5446
:1028C00001222046641C0A54514802782046641CA8
:1028D0000A5400222046641C0A5407222046641C25
:1028E0000A5400222046641C0A5401222046641C1B
:1028F0000A54474890F8CC202046641C0A54002211
:102900002046641C0A5408222046641C0A540022F3
:102910002046641C0A5401222046641C0A543C4888
:1029200090F898212046641C0A5400222046641C1A
:102930000A5409222046641C0A5400222046641CC2
:102940000A5401222046641C0A54314890F864223B
:102950002046641C0A5400222046641C0A540A22A1
:102960002046641C0A5400222046641C0A5401229A
:102970002046641C0A54264842782046641C0A54A7
:1029800000222046641C0A540B222046641C0A5470
:1029900000222046641C0A5401222046641C0A546A
:1029A0001B4890F8CD202046641C0A540022204683
:1029B000641C0A540C222046641C0A54002220463F
:1029C000641C0A5401222046641C0A54104890F8E2
:1029D00099212046641C0A5400222046641C0A5493
:1029E0000D222046641C0A5400222046641C11E07B
:1029F0001E2F002060370020250000202600002028
:102A0000D82E0020A0600240240000203F2F00208C
:102A1000B03000200A5401222046641C0A54FE48AB
:102A200090F865222046641C0A5400222046641C4B
:102A30000A540E222046641C0A5400222046641CBC
:102A40000A54F548B0F92820F4A1F5480AF0C0FA74
:102A5000F34809F065FEC2B22046641CF1490A54ED
:102A60000819EF4909F063FEED4809F059FE0444E6
:102A700000222046641CEB490A540F222046641CA5
:102A80000A5400222046641C0A54E348B0F9F4209A
:102A9000E2A1E3480AF09CFAE14809F041FEC2B223
:102AA0002046641CDF490A540819DD4909F03FFE3D
:102AB000DB4809F035FE044400222046641CD94955
:102AC0000A5410222046641C0A5400222046641C2A
:102AD0000A54D148B0F9C021D0A1D1480AF078FAFF
:102AE000CF4809F01DFEC2B22046641CCD490A54ED
:102AF0000819CB4909F01BFEC94809F011FE04442E
:102B000000222046641CC7490A5411222046641C36
:102B10000A5400222046641C0A54BF48B0F98C2293
:102B2000BEA1BF480AF054FABD4809F0F9FDC2B28F
:102B30002046641CBB490A540819B94909F0F7FD3D
:102B4000B74809F0EDFD044400222046641CB54955
:102B50000A5412222046641C0A5400222046641C97
:102B60000A54AD48426AADA1AD480AF031FAAC480A
:102B700009F0D6FDC2B22046641CAA490A540819BD
:102B8000A74909F0D4FDA64809F0CAFD0444002273
:102B90002046641CA3490A5413222046641C0A548C
:102BA00000222046641C0A549B48D0F8F0209BA1C8
:102BB0009B480AF00DFA9A4809F0B2FDC2B22046CD
:102BC000641C98490A540819954909F0B0FD9448C5
:102BD00009F0A6FD044400222046641C91490A54D1
:102BE00014222046641C0A5400222046641C0A5405
:102BF0008948D0F8BC2189A189480AF0E9F98848B8
:102C000009F08EFDC2B22046641C86490A54081998
:102C1000834909F08CFD824809F082FD04440022BA
:102C20002046641C7F490A5415222046641C0A541D
:102C300000222046641C0A547748D0F8882277A1E5
:102C400077480AF0C5F9764809F06AFDC2B2204615
:102C5000641C74490A540819714909F068FD7048E8
:102C600009F05EFD044400222046641C6D490A54AC
:102C700016222046641C0A5400222046641C0A5472
:102C80006548B0F90E2065A165480AF0A1F96448CD
:102C900009F046FDC2B22046641C62490A54081974
:102CA0005F4909F044FD5E4809F03AFD0444002202
:102CB0002146641C5B48425417222046641C594933
:102CC0000A5400222046641C0A545348B0F9DA2002
:102CD00052A153480AF07CF9514809F021FDC2B2D3
:102CE0002046641C4F490A5408194D4909F01FFD3C
:102CF0004B4809F015FD044400222046641C494954
:102D00000A5418222046641C0A5400222046641CDF
:102D10000A544148B0F9A62140A141480AF058F9A7
:102D20003F4809F0FDFCC2B22046641C3D490A54EC
:102D300008193B4909F0FBFC394809F0F1FC04444F
:102D400000222046641C37490A5419222046641C7C
:102D50000A5400222046641C0A542F48B0F97222FB
:102D60002EA12F480AF034F92D4809F0D9FCC2B23F
:102D70002046641C2B490A540819294909F0D7FC3C
:102D8000274809F0CDFC044400222046641C254954
:102D90000A541A222046641C0A5400222046641C4D
:102DA0000A541D488078022804D0042808D0052839
:102DB00012D10BE01CA21EA119480AF009F90BE080
:102DC0001CA21BA116480AF003F905E01BA218A1DA
:102DD00013480AF0FDF800BF00BF114809F0A0FC3D
:102DE000C2B22046641C0F490A5408190C4909F064
:102DF0009EFC0B4809F094FC044400222046641C0D
:102E000008490A541C222046641C0A540022204609
:102E1000641C0A54004815E0B0300020256400000E
:102E20003F3000203F2F0020CBD9B6C80000000063
:102E300025730000D1B0C1E300000000CEBBD6C3B3
:102E40000000000090F8CE00022804D004280AD028
:102E5000052818D10FE0AFF23002AFF22C01FE4886
:102E60000AF0B6F80FE0AFF23402AFF23C01FA48D4
:102E70000AF0AEF807E0AFF23C02AFF24C01F648C0
:102E80000AF0A6F800BF00BFF34809F049FCC2B23F
:102E90002046641CF1490A540819EF4909F047FC1F
:102EA000ED4809F03DFC044400222046641CEB4937
:102EB0000A541E222146641CE8484254002220463F
:102EC000641CE6490A54E64890F89A01022804D0A6
:102ED00004280AD0052818D10FE0AFF2B402AFF2EF
:102EE000B001DD480AF074F80FE0AFF2B802AFF2BB
:102EF000C001D9480AF06CF807E0AFF2C002AFF2A7
:102F0000D001D5480AF064F800BF00BFD24809F0EC
:102F100007FCC2B22146641CD0484254014608193D
:102F2000CD4909F004FCCC4809F0FAFB0444002226
:102F30002046641CC9490A5420222046641C0A54B5
:102F400000222046641C0A54C54890F866020228F4
:102F500004D004280AD0052818D10FE0AFF23812A7
:102F6000AFF23411BC480AF033F80FE0AFF23C1274
:102F7000AFF24411B8480AF02BF807E0AFF2441260
:102F8000AFF25411B4480AF023F800BF00BFB248B2
:102F900009F0C6FBC2B22046641CB0490A540819A5
:102FA000AD4909F0C4FBAC4809F0BAFB0444FF2268
:102FB0002046641CA9490A54FC222046641C0A5479
:102FC000FF222046641C0A542146641CA348425434
:102FD0002EE4EE222046641CA0490A54B122204669
:102FE000641C0A5412222146641C9C48425400224C
:102FF0002046641C99490A5403222146641C9748C0
:10300000425400222046641C94490A540622204659
:10301000641C0A5400222046641C0A5401222046E3
:10302000641C0A548F4802782046641C0A5400220B
:103030002046641C0A5407222046641C0A540022BD
:103040002146641C8548425401222046641C834961
:103050000A54844890F85C202046641C0A540022DC
:103060002046641C0A5408222046641C0A5400228C
:103070002046641C0A5401222046641C0A547948E4
:1030800090F8B8202046641C0A5400222046641C94
:103090000A5409222046641C0A5400222046641C5B
:1030A0000A5401222046641C0A546E4890F81421E8
:1030B0002046641C0A5400222046641C0A540A223A
:1030C0002046641C0A5400222046641C0A54012233
:1030D0002046641C0A54634842782046641C0A5403
:1030E00000222046641C0A540B222046641C0A5409
:1030F00000222046641C0A5401222046641C0A5403
:10310000584890F85D202146641C544842540022DF
:103110002046641C51490A540C222046641C0A545F
:1031200000222046641C0A5401222046641C0A54D2
:103130004C4890F8B9202146641C4848425400226B
:103140002046641C45490A540D222046641C0A543A
:1031500000222046641C0A5401222046641C0A54A2
:10316000404890F815212046641C0A54002220464D
:10317000641C0A540E222046641C0A540022204675
:10318000641C0A543748026BAFF27031324809F0C0
:103190001FFF314809F0C4FAC2B22046641C2F490F
:1031A0000A5408192C4909F0C2FA2B4809F0B8FA58
:1031B000044400222046641C28490A540F22204659
:1031C000641C0A5400222046641C0A542548D0F886
:1031D0008C20AFF2B831204809F0FAFE1E4809F001
:1031E0009FFAC2B22046641C1C490A5408191A49A5
:1031F00009F09DFA184809F093FA04440022204689
:10320000641C16490A5410222046641C0A540022E9
:103210002046641C0A541348D0F8E820AFF2044159
:103220000D4809F0D5FE0C4809F07AFAC2B22046E2
:10323000641C0A490A540819074909F078FA064833
:1032400009F06EFA044400222046641C03490A5423
:1032500011222046641C07E03F3000203F2F002051
:10326000B0300020603700200A5400222046641C41
:103270000A54FE48D0F84421AFF26041FC4809F0FE
:10328000A7FEFB4809F04CFAC2B22046641CF9497B
:103290000A540819F64909F04AFAF54809F040FAC3
:1032A000044400222146641CF24842541222204663
:1032B000641CF0490A5400222046641C0A54EB485E
:1032C000B0F92C20AFF2AC41E94809F081FEE848A2
:1032D00009F026FAC2B22046641CE6490A540819CD
:1032E000E34909F024FAE24809F01AFA04440022FA
:1032F0002046641CDF490A5413222046641C0A54E9
:1033000000222046641C0A54D848B0F98820AFF245
:10331000F441D74809F05CFED54809F001FAC2B281
:103320002046641CD3490A540819D14909F0FFF911
:10333000CF4809F0F5F9044400222146641CCD4829
:10334000425414222046641CCA490A5400222046D2
:10335000641C0A54C548B0F9E420AFF24051C44897
:1033600009F036FEC24809F0DBF9C2B22046641CFF
:10337000C0490A540819BE4909F0D9F9BC4809F0F6
:10338000CFF9044400222046641CBA490A5415228D
:103390002046641C0A5400222046641C0A54B34888
:1033A000B0F94021AFF28C51B14809F011FEB0489C
:1033B00009F0B6F9C2B22046641CAE490A54081995
:1033C000AB4909F0B4F9AA4809F0AAF9044400226B
:1033D0002046641CA7490A5416222046641C0A543D
:1033E00000222046641C0A54A0480269AFF2D4515E
:1033F0009F4809F0EDFD9E4809F092F9C2B22046BF
:10340000641C9C490A540819994909F090F9984894
:1034100009F086F9044400222046641C95490A54A8
:1034200017222046641C0A5400222046641C0A54B9
:103430008E48C26EAFF21C618D4809F0C9FD8C4800
:1034400009F06EF9C2B22046641C8A490A54081970
:10345000874909F06CF9864809F062F904440022B2
:103460002046641C83490A5418222046641C0A54CE
:1034700000222146641C7F4842547C48D0F8C82072
:10348000AFF268617A4809F0A3FD794809F048F97C
:10349000C2B22046641C77490A540819744909F0DD
:1034A00046F9734809F03CF9044400222046641CA4
:1034B00070490A5419222146641C6E484254002265
:1034C0002046641C6B490A546848D0F82421AFF2A6
:1034D000B461674809F07CFD654809F021F9C2B282
:1034E0002046641C63490A540819614909F01FF910
:1034F0005F4809F015F9044400222046641C5D4928
:103500000A541A222146641C5A484254002220467A
:10351000641C58490A5455488078022804D004286D
:103520000AD0052818D10FE0AFF20472AFF2007193
:103530004F4809F04DFD0FE0AFF20872AFF2107185
:103540004B4809F045FD07E0AFF21072AFF2207171
:10355000474809F03DFD00BF00BF454809F0E0F8CD
:10356000C2B22046641C43490A540819404909F074
:10357000DEF83F4809F0D4F8044400222046641CD9
:103580003C490A541C222146641C3A4842540022F9
:103590002046641C37490A54344890F85E000228DB
:1035A00004D004280AD0052818D10FE0AFF28872A1
:1035B000AFF284712E4809F00BFD0FE0AFF28C7270
:1035C000AFF294712A4809F003FD07E0AFF294725C
:1035D000AFF2A471264809F0FBFC00BF00BF2448ED
:1035E00009F09EF8C2B22046641C22490A54081908
:1035F0001F4909F09CF81E4809F092F80444002283
:103600002046641C1B490A541E222046641C0A548E
:1036100000222046641C0A54144890F8BA0002287C
:1036200004D004280AD0052818D10FE0AFF608020C
:10363000AFF604010E4809F0CBFC0FE0AFF60C0228
:10364000AFF614010A4809F0C3FC07E0AFF6140214
:10365000AFF62401064809F0BBFC00BF00BF0448D8
:1036600009F05EF8C2B22046641C05E06037002015
:103670003F3000203F2F002098490A5408199849EC
:1036800009F055F8964809F04BF804440022214609
:10369000641C9248425420222046641C8F490A54DC
:1036A00000222046641C0A548E4890F81601022815
:1036B00004D004280AD0052818D10FE0AFF69802EC
:1036C000AFF69401864809F083FC0FE0AFF69C0248
:1036D000AFF6A401824809F07BFC07E0AFF6A40234
:1036E000AFF6B4017E4809F073FC00BF00BF7C4810
:1036F00009F016F8C2B22146641C784842540146CB
:103700000819774909F013F8754809F009F80444D5
:10371000FF222046641C71490A54FC222046641C86
:103720000A54FF222046641C0A542046641C0A5492
:10373000BDE0EE222046641C68490A54B1222046AE
:10374000641C0A5412222046641C0A54002220469B
:10375000641C0A5404222046641C0A540022204699
:10376000641C0A5401222046641C0A54002220468C
:10377000641C0A5401222046641C0A545A48027EE2
:103780002146641C5548425400222046641C53497B
:103790000A5402222046641C0A5400222046641C5B
:1037A0000A5401222046641C0A544F48427E204697
:1037B000641C0A5400222046641C0A54032220463A
:1037C000641C0A5400222046641C0A54012220462C
:1037D000641C0A544448827E2046641C0A54002219
:1037E0002046641C0A5404222046641C0A54002209
:1037F0002046641C0A5401222046641C0A543A489C
:10380000C27E2046641C0A5400222046641C0A54CE
:1038100005222046641C0A5400222046641C0A54D7
:1038200001222046641C0A542F48027F2046641C53
:103830000A5400222046641C0A5406222046641CB6
:103840000A5400222046641C0A5401222046641CAB
:103850000A542548427F2046641C0A540022204610
:10386000641C0A5407222046641C0A540022204685
:10387000641C0A5401222046641C0A541A48827FA0
:103880002146641C15484254FF222046641C1349FB
:103890000A54FC222046641C0A54FF222146641C60
:1038A0000E4842542046641C0C490A5400BF00BF15
:1038B000E0B2FEF768FF10BD10B50C490C4804F0EB
:1038C00019FC50B109490A4804F03EFC094908486E
:1038D00004F0DFFB00200449C87510BD3F2F002015
:1038E0003F30002060370020D82E002000802020AC
:1038F000A06002400000202010B542F22830FE49AE
:1039000088804FF40050088024204880B7EE000AD9
:10391000084680ED020A0020F8490870F64890ED4C
:10392000020AF2EE0E0A20EE200A084680ED010A95
:103930000120087240F6B8304881012008734FF426
:10394000FA700882C820C8814FF47A70EC498883E5
:103950000020EC4908704870052088700846E84946
:103960000968C165E6484168E64801660A22E449FB
:103970000831643008F0B0FEE148418AE148A0F81F
:103980006E10DF4A51699369D269C0E91D3201673F
:10399000D949D1E900238968C0E9062301620A22D6
:1039A000D649001D08F098FED4484189D548C18108
:1039B000D24989890182D148C189D2484182CF49FF
:1039C000096941610020CF4948624FF4FA71CD483E
:1039D000418501850146B1F928007C31DFEDCA1A25
:1039E0009FEDCA1ADFEDCA0AB1EE040A01F00CFA23
:1039F000C449486AA431F7EE001A9FEDC41ADFEDFE
:103A0000C50AB2EE000A01F0FFF9BE48D0ED020A85
:103A1000408B00EE100AB8EE400A60EE800AB9480A
:103A2000008B00EE100AB8EE400A20EE800ADFEDAF
:103A3000BA0A80EE201ABCEEC10AB24880ED170A1D
:103A4000406AB049498B4843AE49098B484300EE70
:103A5000100AB8EEC00ADFEDB00A80EE201ABDEE03
:103A6000C10A10EE100AA749C8620021A548C16327
:103A70000020A44981F8CC000021A24880F8CD1094
:103A8000052180F8CE109E490968C0F828119C488D
:103A900041689C48C0F82C110A229949083100F568
:103AA000987008F019FE9648418A9648A0F83A1195
:103AB000CC30934B59699A69DB6970300EC07C3801
:103AC0008D4B0ECB18300EC00A228C49203808F0DE
:103AD00003FE8A4841898B48A0F8DA108749898912
:103AE000A0F8DC108548C1898648A0F8DE1083491B
:103AF0000969C0F8E0100021C0F8F0104FF4FA7125
:103B0000A0F8F610A0F8F4100146B1F9F40001F5A0
:103B1000A471DFED7D1A9FED7D1ADFED7D0AB1EE18
:103B2000040A01F071F97749D1F8F00001F5B87194
:103B3000F7EE001A9FED751ADFED760AB2EE000A75
:103B400001F062F96F48D0ED350AB0F8E60000EEFA
:103B5000100AB8EE400A60EE800A6A48B0F8E40045
:103B600000EE100AB8EE400A20EE800ADFED6A0A85
:103B700080EE201ABCEEC10A624880ED4A0AD0F8F5
:103B8000F010B0F8E60048435E49B1F8E41048434D
:103B900000EE100AB8EEC00ADFED5F0A80EE201AD0
:103BA000BDEEC10A10EE101A5648C0F8F8100020F9
:103BB000544981F898010021524880F89911052153
:103BC00080F89A114E490968C0F8F4114C484168D0
:103BD0004C48C0F8F8110A224949083100F5FE7036
:103BE00008F07AFD4648418A4648A0F8061200F5DA
:103BF000CC70434B59699A69DB6970300EC07C38D0
:103C00003D4B0ECB18300EC00A223C49203808F03C
:103C100063FD3A4841893B48A0F8A6113749898994
:103C2000A0F8A8113548C1893648A0F8AA1133492F
:103C30000969C0F8AC110021C0F8BC114FF4FA7149
:103C4000A0F8C211A0F8C0110146B1F9C00101F5F8
:103C50000571DFED2D1A9FED2D1ADFED2D0AB1EE66
:103C6000040A01F0D1F82749D1F8BC0101F50F7120
:103C7000F7EE001A9FED251ADFED260AB2EE000AD4
:103C800001F0C2F81F48D0ED680AB0F8B20100EEAA
:103C9000100AB8EE400A60EE800A1A48B0F8B00187
:103CA00000EE100AB8EE400A20EE800ADFED1A0A94
:103CB00080EE201ABCEEC10A124880ED7D0AD0F8D1
:103CC000BC11B0F8B20148430E49B1F8B0114843F5
:103CD00000EE100AB8EEC00ADFED0F0A80EE201ADF
:103CE000BDEEC10A10EE101A0648C0F8C41100203B
:103CF000044981F8640211E0603000207C3000202B
:103D000090300020B0300020CDCCCC3E0000000030
:103D1000CDCC4C3E9A99993E0000B4430021FE4818
:103D200080F86512052180F86612FC490968C0F820
:103D3000C012FA484168F848C0F8C4120A22F7498C
:103D4000083100F5327008F0C7FCF448418AF248A7
:103D5000A0F8D21200F51970F04B59699A69DB6925
:103D600070300EC07C38EE4B0ECB18300EC00A22DD
:103D7000EC49203808F0B0FCEA484189E648A0F850
:103D80007212E8498989A0F87412E648C189E248AC
:103D9000A0F87612E3490969C0F878120021C0F84A
:103DA00088124FF4FA71A0F88E12A0F88C12014616
:103DB000B1F98C0201F538715FED2D1A1FED2D1A46
:103DC0005FED2D0AB1EE040A01F01EF8D249D1F8D8
:103DD000880201F54271F7EE001A1FED341A5FED0B
:103DE000330AB2EE000A01F00FF8CB48D0ED9B0A7F
:103DF000B0F87E0200EE100AB8EE400A60EE800ACB
:103E0000C548B0F87C0200EE100AB8EE400A20EE79
:103E1000800A5FED3F0A80EE201ABCEEC10ABE4860
:103E200080EDB00AD0ED9B0AB0F87E0200EE100AD9
:103E3000B8EE400A60EE800AB748B0F87C0200EEA7
:103E4000100AB8EE400A20EE800A5FED4D0A80EEBF
:103E5000201ABCEEC10AB04880EDB00AD0F8881232
:103E6000B0F87E024843AC49B1F87C12484300EEFA
:103E7000100AB8EEC00A5FED580A80EE201ABDEEB7
:103E8000C10A10EE101AA448C0F890120020A249EE
:103E900081F830030021A04880F83113052180F813
:103EA00032139E490968C0F88C139C4841689A48AF
:103EB000C0F890130A229949083100F5657008F09E
:103EC0000BFC9648418A9448A0F89E1300F54C706C
:103ED000924B59699A69DB6970300EC07C38904BFF
:103EE0000ECB18300EC00A228E49203808F0F4FBA1
:103EF0008C4841898848A0F83E138A498989A0F8EE
:103F000040138848C1898448A0F84213854909694B
:103F1000C0F844130021C0F854134FF4FA71A0F80C
:103F20005A13A0F858130146B1F9580301F56B7103
:103F30005FED8B1A1FED8B1A5FED8B0AB1EE040A51
:103F400000F062FF7449D1F8540301F57571F7EE82
:103F5000001A1FED921A5FED910AB2EE000A00F00E
:103F600053FF6D48D0EDCE0AB0F84A0300EE100AB8
:103F7000B8EE400A60EE800A6748B0F8480300EEE9
:103F8000100AB8EE400A20EE800A5FED9D0A80EE2E
:103F9000201ABCEEC10A604880EDE30AD0F8541341
:103FA000B0F84A0348435C49B1F84813484300EE6F
:103FB000100AB8EEC00A5FEDA80A80EE201ABDEE26
:103FC000C10A10EE101A5448C0F85C130020524980
:103FD00081F8FC030021504880F8FD13052180F88A
:103FE000FE134E490968C0F858144C4841684A48C5
:103FF000C0F85C140A224949083100F58C6008F0C9
:104000006BFB4648418A4448A0F86A1400F57F706B
:10401000424B59699A69DB6970300EC07C38404B5D
:104020000ECB18300EC00A223E49203808F054FB4F
:104030003C4841893848A0F80A143A498989A0F8CF
:104040000C143848C1893448A0F80E143549096960
:10405000C0F810140021C0F820144FF4FA71A0F831
:104060002614A0F824140146B1F9240401F58F6147
:104070005FEDDB1A1FEDDB1A5FEDDB0AB1EE040A20
:1040800000F0C2FE2449D1F8200401F59461F7EE56
:10409000001A1FEDE21A5FEDE10AB2EE000A00F02D
:1040A000B3FE2148D0ED020A1B48B0F8160400EE1A
:1040B000100AB8EE400A60EE800A1748B0F81404FF
:1040C00000EE100AB8EE400A20EE800A5FEDEE0A1C
:1040D00080EE201ABCEEC10A134880ED170A0E4884
:1040E000D0F82014B0F8160448430B49B1F8141462
:1040F000484300EE100AB8EEC00A5FEDF90A80EE00
:10410000201ABDEEC10A10EE101A0348C0F8281498
:10411000002001490AE00000B0300020903000206B
:10412000603000207C300020AC34002081F8C804CE
:104130000021FE4880F8C914052180F8CA14FC4902
:104140000968C0F82415FA484168F848C0F82815ED
:104150000A22F749083100F22C5008F0BDFAF44861
:10416000418AF248A0F8361500F59960F04B59697C
:104170009A69DB6970300EC07C38EE4B0ECB18307C
:104180000EC00A22EC49203808F0A6FAEA48418914
:10419000E648A0F8D614E8498989A0F8D814E6487A
:1041A000C189E248A0F8DA14E3490969C0F8DC14CF
:1041B0000021C0F8EC144FF4FA71A0F8F214A0F842
:1041C000F0140146B1F9F00401F24451DFEDDB1ABD
:1041D0009FEDDB1ADFEDDB0AB1EE040A00F014FEFE
:1041E000D249D1F8EC0401F26C51F7EE001A9FEDC0
:1041F000D41ADFEDD50AB2EE000A00F005FED3486E
:10420000D0ED020AC948B0F8E20400EE100AB8EE98
:10421000400A60EE800AC548B0F8E00400EE100ADB
:10422000B8EE400A20EE800ADFEDC90A80EE201ABF
:10423000BCEEC10AC54880ED170ABC48D0F8EC14A2
:10424000B0F8E2044843B949B1F8E014484300EE3D
:10425000100AB8EEC00ADFEDBE0A80EE201ABDEEED
:10426000C10A10EE101AB148C0F8F4140020AF498A
:1042700081F894050021AD4880F89515052180F856
:104280009615AB490968C0F8F015A9484168A748D8
:10429000C0F8F4150A22A649083100F5BF6008F0FD
:1042A0001BFAA348418AA148A0F8021600F29450D4
:1042B0009F4B59699A69DB6970300EC07C389D4B01
:1042C0000ECB18300EC00A229B49203808F004FAA1
:1042D000994841899548A0F8A21597498989A0F87D
:1042E000A4159548C1899148A0F8A6159249096975
:1042F000C0F8A8150021C0F8B8154FF4FA71A0F85D
:10430000BE15A0F8BC150146B1F9BC0501F5C261A6
:10431000DFED8A1A9FED8A1ADFED8A0AB1EE040AF0
:1043200000F072FD8149D1F8B80501F5C761F7EEDB
:10433000001A9FED831ADFED840AB2EE000A00F046
:1043400063FD8248CC30D0ED020A7848B0F8AE0563
:1043500000EE100AB8EE400A60EE800A7348B0F82A
:10436000AC0500EE100AB8EE400A20EE800ADFED40
:10437000780A80EE201ABCEEC10A7448CC3080ED79
:10438000170A6A48D0F8B815B0F8AE05484367492F
:10439000B1F8AC15484300EE100AB8EEC00ADFEDE4
:1043A0006C0A80EE201ABDEEC10A10EE101A5F48AA
:1043B000C0F8C01510BD002200EB001101EB410157
:1043C0005A4B03EB810181F85920002100EB0012C8
:1043D00002EB420203EB82025163002200EB001168
:1043E00001EB410103EB8101CA63704770B5002402
:1043F0001DE204EB041000EB40004C4901EB80008F
:10440000B0F8401004EB041000EB4000474A02EB08
:104410008000B0F85000081A01B204EB041000EB61
:10442000400002EB8000A0F8641004EB041000EBE5
:104430004000114601EB8000406B04EB041101EBDE
:10444000410102EB8101486404EB041000EB4000E1
:10445000114601EB8000018F04EB041000EB4000DB
:1044600002EB8000A0F8481004EB041000EB4000C1
:10447000114601EB8000418F04EB041000EB40007B
:1044800002EB8000A0F84A1004EB041000EB40009F
:10449000114601EB8000C16B04EB041000EB4000FF
:1044A00002EB8000C16404EB041000EB40001146F5
:1044B00001EB8000B0F8401004EB041000EB40006A
:1044C00002EB8000A0F8501004EB041000EB400059
:1044D000114601EB8000B0F96400002808DD04EB10
:1044E000041000EB400001EB8000B0F9640009E02B
:1044F00004EB041000EB40000C4901EB8000B0F924
:1045000064004042B0F57A6F40DD04EB041000EB2C
:104510004000064901EB8000B0F9641004EB041080
:1045200000EB4000014A02EB800013E0B0300020B5
:1045300090300020603000207C300020CDCCCC3E7C
:1045400000000000CDCC4C3E9A99993E7835002071
:104550000000B443B0F96400002801DB012001E051
:104560004FF0FF3004EB041202EB4202FE4B03EB70
:104570008202128B00FB121001B204EB041000EB5C
:1045800040001A4602EB8000A0F8641004EB04100F
:1045900000EB4000F44901EB8000C16B04EB041018
:1045A00000EB4000F04A02EB8000B0F964000144E7
:1045B00004EB041000EB400002EB8000C16304EB4D
:1045C000041000EB4000114601EB8000C16A04EBCF
:1045D000041000EB400002EB8000C06B091A04EBF2
:1045E000041000EB400002EB8000816604EB041035
:1045F00000EB4000114611F82000002874D004EBB5
:10460000041000EB400001EB8000B0F92A00002804
:1046100008DD04EB041000EB400001EB8000B0F972
:104620002A0009E004EB041000EB4000CE4901EB46
:104630008000B0F92A00404204EB041101EB410173
:10464000C94A02EB8101898B88424DDB04EB0410DF
:1046500000EB4000114601EB8000B0F86E00401CFA
:1046600081B204EB041000EB400002EB8000A0F8E4
:104670006E1004EB041000EB4000114601EB8000CB
:10468000B0F86E00B0F57A7F22DD012104EB041052
:1046900000EB400002EB800080F85610A0B240F41E
:1046A0000472B24803C8FDF760F804EB041000EB95
:1046B0004000AD4901EB8000007C60B3002004EBBA
:1046C000041101EB4101A84A02EB8101487022E08C
:1046D000002104EB041000EB4000A34A02EB800031
:1046E00080F8561017E0FFE7A0B240F404729F482C
:1046F00003C8FDF754F805462A469C4803C8FDF751
:1047000027F8002104EB041000EB4000964A02EB6E
:104710008000A0F86E1004EB041000EB40009249FA
:1047200001EB8000407870B104EB041000EB400016
:1047300001EB8000C16B04EB041000EB40008A4ADF
:1047400002EB8000016604EB041000EB4000864998
:1047500001EB800090F8590010B120B2FFF72BFE5A
:1047600004EB041000EB40007F4911F82000D0B3A7
:1047700007F0F0FD04EB041101EB41017A4A02EB72
:104780008101496F411A04EB041000EB400002EB79
:104790008000B0F87800814231D904EB041000EBBE
:1047A0004000114601EB800090F87000401CC1B23F
:1047B00004EB041000EB400002EB800080F8701066
:1047C0000A2911DD012104EB041000EB400002EB8B
:1047D000800080F85710A0B240F48872634803C884
:1047E000FCF7C3FF22E00AE0002104EB041000EB19
:1047F00040005D4A02EB800080F8571016E000216F
:1048000004EB041000EB4000574A02EB800080F8F4
:104810007010A0B240F48872544803C8FCF7BFFF80
:1048200005462A46514803C8FCF792FF641C082C31
:10483000FFF6DFAD70BD10B5044604EB041000EBCD
:104840004000494901EB8000B0F9280004EB041155
:1048500001EB4101444A02EB8101C86704EB0410FB
:1048600000EB4000114601EB8000B0F9381004EB7A
:10487000041000EB400002EB8000C0F8801004EB55
:10488000041101EB410102EB810101F17C0000F018
:10489000CCFA04EB041000EB4000334901EB80003C
:1048A000418D04EB041000EB40002F4A02EB800026
:1048B000B0F88400084401B204EB041000EB40009F
:1048C00002EB8000418510BD10B5044604EB0410D6
:1048D00000EB4000244901EB8000408B04EB041105
:1048E00001EB4101204A02EB8101098B484300EEB4
:1048F000100AB8EEC00A1FEDEA1AC0EE010A04EB76
:10490000041000EB4000114601EB8000406A00EE0D
:10491000100AB8EEC00A20EE800ABDEEC00A10EE02
:10492000100A04EB041101EB410102EB8101C862A2
:1049300004EB041000EB4000114601EB8000C06A5C
:1049400004EB041101EB410102EB8101C1F8A40069
:1049500004EB041000EB4000114601EB80004078AE
:1049600098B904EB041003E0B03000201C000020D4
:1049700000EB400001EB8000006E04EB041101EB42
:10498000410102EB8101C1F8A40004EB041000EB2B
:104990004000FB4901EB8000007998B304EB041060
:1049A00000EB400001EB8000D0F8A400002808DDF7
:1049B00004EB041000EB400001EB8000D0F8A400F1
:1049C00009E004EB041000EB4000ED4901EB80002E
:1049D000D0F8A400404204EB041101EB4101E84A85
:1049E00002EB8101C96D884220D904EB041000EB71
:1049F0004000114601EB8000D0F8A400002802DB43
:104A0000012002E012E04FF0FF3004EB041101EB53
:104A10004101DB4A02EB8101C96D484304EB0411FB
:104A200001EB410102EB8101C1F8A40004EB041089
:104A300000EB4000D24901EB8000C16B04EB041095
:104A400000EB4000CE4A02EB8000C0F8A81004EB57
:104A5000041101EB410102EB810101F1A40000F01E
:104A6000E4F904EB041000EB4000C54901EB8000C1
:104A7000C16F04EB041000EB4000C14A02EB800060
:104A8000D0F8AC00084400EE100AB8EEC00A04EBFF
:104A9000041000EB4000114601EB8000D0ED280A25
:104AA00020EE200ABDEEC00A04EB041000EB40002B
:104AB00001EB800080ED1F0A04EB041000EB4000C6
:104AC00001EB8000007B80B304EB041000EB40009E
:104AD00001EB8000C06F002807DD04EB041000EB41
:104AE000400001EB8000C06F08E004EB041000EB15
:104AF0004000A34901EB8000C06F404204EB041169
:104B000001EB41019E4A02EB8101B1F90E1088428E
:104B10001FDD04EB041000EB4000114601EB8000A8
:104B2000C06F002802DB012002E012E04FF0FF30EE
:104B300004EB041101EB4101914A02EB8101B1F94F
:104B40000E10484304EB041101EB410102EB81011B
:104B5000C86704EB041000EB4000894901EB8000BA
:104B6000B0F9381004EB041000EB4000844A02EB6B
:104B70008000C0F8801004EB041101EB410102EB4E
:104B8000810101F17C0000F050F904EB041000EB0E
:104B900040007B4901EB8000418D04EB041000EBE9
:104BA0004000774A02EB8000B0F88400084401B26C
:104BB00004EB041000EB400002EB8000418504EBA5
:104BC000041000EB4000114601EB8000806E0028CD
:104BD00007DD04EB041000EB400001EB8000806E69
:104BE00008E004EB041000EB4000654901EB800095
:104BF000806E40423C280ADA012004EB041101EBEC
:104C000041015F4A02EB810181F8540009E0002074
:104C100004EB041101EB4101594A02EB810181F8D7
:104C2000540010BD10B5044604EB041000EB400026
:104C3000534901EB8000B0F9120004EB041101EBC1
:104C400041014F4A02EB8101C86704EB041000EBFD
:104C50004000114601EB8000B0F9381004EB04105D
:104C600000EB400002EB8000C0F8801004EB041160
:104C700001EB410102EB810101F17C0000F0D5F86C
:104C800004EB041000EB40003D4901EB8000418D36
:104C900004EB041000EB4000394A02EB8000B0F84E
:104CA0008400084401B204EB041000EB400002EB66
:104CB0008000418504EB041000EB4000114601EB3D
:104CC0008000B0F92A00002808DD04EB041000EB96
:104CD000400001EB8000B0F92A0009E004EB041069
:104CE00000EB4000264901EB8000B0F92A00404269
:104CF00004EB041101EB4101214A02EB8101898A95
:104D000088421FDD04EB041000EB4000114601EB6C
:104D10008000B0F92A00002801DB012001E04FF0FB
:104D2000FF3004EB041101EB4101154A02EB810154
:104D3000898A484301B204EB041000EB400002EB07
:104D40008000418504EB041000EB40000C4901EBAE
:104D50008000B0F86400A8B904EB041000EB400038
:104D600001EB8000B0F86C00401C81B204EB041031
:104D700000EB4000024A02EB8000A0F86C100BE050
:104D8000B0300020002104EB041000EB40001D4A6D
:104D900002EB8000A0F86C1004EB041000EB400064
:104DA000184901EB8000B0F86C00642829DD00216F
:104DB00004EB041000EB4000124A02EB8000A0F864
:104DC0006C1004EB041000EB400002EB8000C163A8
:104DD000002004EB041101EB410102EB8101486268
:104DE000052004EB041101EB410102EB8101887005
:104DF000012104EB041000EB400002EB800080F87E
:104E0000551010BDB030002081ED081AC1ED070A21
:104E100081ED060AC1ED091A086000224A608A6025
:104E2000CA6000230B614B617047D0E90012891AF8
:104E3000C160D0E90321511A00EE101AB8EEC00A81
:104E4000D0ED060A20EE200A90ED071AD0ED030AF5
:104E5000F8EEE00A01EE200A0223016903FB1122A9
:104E60004169114400EE901AF8EEE00A90ED081A3C
:104E700001EE200ABDEEC00A80ED020A026942611D
:104E8000C26802617047000010B586B00446002079
:104E9000019008208DF80E0000208DF80D008DF88F
:104EA0000C0001208DF80F0000218DF810108DF8F6
:104EB00011108DF812108DF813108DF814108DF854
:104EC00015108DF8161001A9204602F027FC06B037
:104ED00010BD30B54FF48040FE490880B7EE000A9F
:104EE000084680ED010A4FF48040FB490880B7EE88
:104EF000000A084680ED010A4FF47A60F7490880FD
:104F00009FEDF70A084680ED010A0020F549087078
:104F10009FEDF50A084680ED010A012008724FF462
:104F20004870C860012008744FF47A7008834010FC
:104F300048614000ED498881002082E0C0EBC0015B
:104F400001EB0011EA4A02EB8101E34C1CCC203159
:104F50001CC1C0EBC00101EB0011E54A02EB81016D
:104F6000E24D3CCD4C313CC1C0EBC00101EB001126
:104F7000DF4A02EB8102DB4C23686168A468C2E966
:104F800002145360D749CA68C0EBC00101EB00119D
:104F9000D74B03EB81010A61C0EBC00101EB0011AB
:104FA0001A4602EB8101CF4A12694A61CD494A692A
:104FB000C0EBC00101EB001103EB81018A61C0EB82
:104FC000C00101EB00111A4602EB8101C54A92694A
:104FD000CA610021C0EBC00202EB001203F82210EC
:104FE000C0EBC00202EB001203EB820251700221FF
:104FF000C0EBC00202EB001203EB820291704FF48F
:10500000FA72C0EBC00101EB001103EB81010A63EE
:105010005200C0EBC00101EB001103EB8101CA8516
:105020000021C0EBC00202EB001203EB820291856B
:105030000022C0EBC00101EB001103EB81014A63C8
:10504000401C0528FFF67AAF30BD2DE9F041074638
:105050000C4615461E46A74801F02BF920B1012049
:10506000A5490871BDE8F08107F54070A1494A885B
:10507000091D01EB02110860012C22D104219D4879
:105080004288001D00EB021001714D2199484288B1
:10509000001D00EB021041714F2196484288001D0F
:1050A00000EB02108171002192484288001D00EB44
:1050B0000210C1718F484288001D00EB021001727E
:1050C0003BE0022C39D108218A484288001D00EBC0
:1050D000021001714D2187484288001D00EB02102B
:1050E00041714F2183484288001D00EB02108171FD
:1050F000002180484288001D00EB0210C1717D48EC
:105100004288001D00EB021001727A484288001D9F
:1051100000EB0210457277484288001D00EB021038
:10512000817274484288001D00EB0210C172714800
:105130004288001D00EB021001736E484188001D7B
:1051400000EB011046736B484088401C1E2190FB09
:10515000F1F201FB12006749488000BF82E710B5F9
:105160000446644801F0A5F818B1012062490871AD
:1051700010BD0120C4EBC40101EB04115C4A02EB39
:105180008101487004F540705A494A88091D01EBB5
:1051900002110860042157484288001D00EB0210EC
:1051A0000171422153484288001D00EB02104171F9
:1051B000472150484288001D00EB021081710021F8
:1051C0004C484288001D00EB0210C17149484288DA
:1051D000001D00EB0210017246484088401C1E2151
:1051E00090FBF1F201FB12004249488000BFBFE78B
:1051F0002DE9F04107460C4615461E463D4801F094
:1052000058F820B101203C490871BDE8F08107F54C
:10521000407038494A88091D01EB02110860012CD1
:1052200022D1042133484288001D00EB0210017195
:10523000412130484288001D00EB0210417143219A
:105240002C484288001D00EB021081710021294882
:105250004288001D00EB0210C17126484288001DE3
:1052600000EB021001722AE0022C28D1082121480B
:105270004288001D00EB0210017141211D48428847
:10528000001D00EB0210417143211A484288001DA5
:1052900000EB02108171002116484288001D00EBCE
:1052A0000210C17113484288001D00EB0210017208
:1052B00010484188001D00EB0110C0F809500D484E
:1052C0004188001D00EB011046730A484088401CCD
:1052D0001E2113E02C3700203837002044370020EF
:1052E000E4389641103700200000000050370020BD
:1052F00060370020043D0020D82E002090FBF1F202
:1053000001FB1200FE49488000BF7EE72DE9F04115
:1053100007460C4615461E46F94800F0CAFF20B164
:105320000120F8490871BDE8F08107F54070F449A3
:105330004A88091D01EB02110860012C22D10421C9
:10534000EF484288001D00EB021001714421EC4837
:105350004288001D00EB021041714321E848428859
:10536000001D00EB021081710021E5484288001DFC
:1053700000EB0210C171E2484288001D00EB0210F0
:1053800001722AE0022C28D10821DD484288001D44
:1053900000EB021001714421D9484288001D00EB46
:1053A000021041714321D6484288001D00EB0210D3
:1053B00081710021D2484288001D00EB0210C171AA
:1053C000CF484288001D00EB02100172CC48418892
:1053D000001D00EB0110C0F80950C9484188001DAC
:1053E00000EB01104673C6484088401C1E2190FB0C
:1053F000F1F201FB1200C249488000BF93E72DE99A
:10540000F04104460D4616461F46BD4800F051FFC8
:1054100020B10120BB490871BDE8F08104F540705E
:10542000B7494A88091D01EB02110860012D22D1FC
:105430000421B3484288001D00EB021001714A218B
:10544000AF484288001D00EB021041715621AC4864
:105450004288001D00EB021081710021A84842889B
:10546000001D00EB0210C171A5484288001D00EB31
:105470000210017245E0022D43D1C4EBC40101EBDF
:105480000411A14A02EB8101098C00EE101AB8EE5A
:10549000400A9FED9E1AC0EE010A00EE106AB8EEB7
:1054A000C00A20EE800ABDEEC00A10EE100A0822E3
:1054B00093494B88091D01EB03110A714A22904957
:1054C0004B88091D01EB03114A7156228C494B8808
:1054D000091D01EB03118A71002289494B88091DBE
:1054E00001EB0311CA7186494B88091D01EB0311B9
:1054F0000A7283494A88091D01EB0211C1F80900AB
:1055000000BF7F484188001D00EB011047737C48B5
:105510004088401C1E2190FBF1F201FB12007849EB
:10552000488000BF78E710B50446754800F0C1FE1A
:1055300018B101207349087110BD04F5407070491D
:105540004A88091D01EB0211086004216C48428859
:10555000001D00EB02100171492169484288001DBD
:1055600000EB02104171512165484288001D00EB9B
:1055700002108171002162484288001D00EB021078
:10558000C17180215E484288001D00EB021001724B
:105590005B484088401C1E2190FBF1F201FB120089
:1055A0005749488000BFC7E72DE9F04107460C4640
:1055B00015461E46524800F07CFE20B1012051499C
:1055C0000871BDE8F08107F540704D494A88091D12
:1055D00001EB02110860012C22D1042148484288C5
:1055E000001D00EB02100171502145484288001D4A
:1055F00000EB02104171412141484288001D00EB3F
:105600000210817100213E484288001D00EB02100B
:10561000C1713B484288001D00EB021001722AE074
:10562000022C28D1082136484288001D00EB0210C8
:105630000171502132484288001D00EB0210417177
:1056400041212F484288001D00EB0210817100218A
:105650002B484288001D00EB0210C1712848428887
:10566000001D00EB0210017225484188001D00EB6F
:105670000110C0F8095022484188001D00EB0110BC
:1056800046731F484088401C1E2190FBF1F201FB2D
:1056900012001B49488000BF93E710B50446184824
:1056A00000F007FE18B101201649087110BD04F57D
:1056B000407013494A88091D01EB0211086004215A
:1056C0000F484288001D00EB0210017150210C4868
:1056D0004288001D00EB02104171452108484288B4
:1056E000001D00EB02108171002105484288001D59
:1056F00000EB0210C17102484288001D08E0000062
:10570000043D0020D82E00206037002000007042A9
:1057100000EB02100172FE484088401C1E2190FBE5
:10572000F1F201FB1200FA49488000BFBEE72DE903
:10573000F04107460C4615461E46F54800F0B9FDF7
:1057400020B10120F3490871BDE8F08107F54070F0
:10575000EF494A88091D01EB02110860012C22D192
:105760000421EB484288001D00EB0210017150211A
:10577000E7484288001D00EB021041715221E448C5
:105780004288001D00EB021081710021E048428830
:10579000001D00EB0210C171DD484288001D00EBC6
:1057A000021001722AE0022C28D10821D848428830
:1057B000001D00EB021001715021D5484288001DE8
:1057C00000EB021041715221D1484288001D00EBCC
:1057D000021081710021CE484288001D00EB0210AA
:1057E000C171CB484288001D00EB02100172C8480D
:1057F0004188001D00EB0110C0F80950C4484188E1
:10580000001D00EB01104673C1484088401C1E215A
:1058100090FBF1F201FB1200BD49488000BF93E705
:105820002DE9F04107460C4615461E46B84800F0E3
:1058300040FD20B10120B7490871BDE8F08107F5AE
:105840004070B3494A88091D01EB02110860012C20
:1058500022D10421AE484288001D00EB02100171E4
:105860005021AB484288001D00EB021041715821C5
:10587000A7484288001D00EB021081710021A44856
:105880004288001D00EB0210C171A1484288001D32
:1058900000EB021001722AE0022C28D108219C485A
:1058A0004288001D00EB0210017150219848428887
:1058B000001D00EB02104171582195484288001DDF
:1058C00000EB02108171002191484288001D00EB1D
:1058D0000210C1718E484288001D00EB0210017257
:1058E0008B484188001D00EB0110C0F80950884822
:1058F0004188001D00EB0110467385484088401C1C
:105900001E2190FBF1F201FB12008149488000BF8B
:1059100093E72DE9F04107460C4615461E467C48A4
:1059200000F0C7FC20B101207A490871BDE8F08180
:1059300007F5407076494A88091D01EB021108609D
:10594000012C22D1042172484288001D00EB021074
:10595000017153216E484288001D00EB0210417115
:1059600044216B484288001D00EB02108171002128
:1059700067484288001D00EB0210C17164484288EC
:10598000001D00EB021001722AE0022C28D1082130
:105990005F484288001D00EB0210017153215C48F2
:1059A0004288001D00EB0210417144215848428892
:1059B000001D00EB02108171002155484288001D36
:1059C00000EB0210C17152484288001D00EB02102A
:1059D00001724F484188001D00EB0110C0F80950CA
:1059E0004B484188001D00EB011046734848408831
:1059F000401C1E2190FBF1F201FB1200444948803B
:105A000000BF93E72DE9F04104460D4616461F46B8
:105A10003F4800F04EFC20B101203E490871BDE82E
:105A2000F08104F540703A494A88091D01EB0211E2
:105A30000860012D22D1042135484288001D00EB69
:105A400002100171532132484288001D00EB021000
:105A5000417150212E484288001D00EB02108171D7
:105A600000212B484288001D00EB0210C17128481C
:105A70004288001D00EB0210017245E0022D43D167
:105A8000C4EBC40101EB0411234A02EB8101098C30
:105A900000EE101AB8EE400A1FEDE41AC0EE010A3B
:105AA00000EE106AB8EEC00A20EE800ABDEEC00A11
:105AB00010EE100A082216494B88091D01EB03114C
:105AC0000A71532212494B88091D01EB03114A71D7
:105AD00050220F494B88091D01EB03118A710022E6
